:100000000C94D5000C94FD000C94FD000C94FD00A4
:100010000C94FD000C94FD000C94FD000C94FD006C
:100020000C94FD000C94FD000C940F070C947E07BB
:100030000C94FD000C94FD000C94FD000C94FD004C
:100040000C94FD000C94FD000C94FD000C94FD003C
:100050000C94FD000C94FD000C94FD000C94B00970
:100060000C94FD000C94FD000C94FD000C94FD001C
:100070000C94FD000C94FD000C94FD000C94FD000C
:100080000C94FD000C94FD000C94FD000C94FD00FC
:100090000C94FD000C94FD000C94FD000C94FD00EC
:1000A0000C94FD000C94FD000C94FD00080B000264
:1000B0000202000009040000010202000005240001
:1000C0001001052401010104240206052406000193
:1000D0000705810310004009040100020A00000026
:1000E00007050202400000070583024000000403E8
:1000F000090412010002EF020140032A40800001BE
:1001000001020301556E6B6E6F776E00417264756C
:10011000696E6F204C656F6E6172646F2045544844
:100120000000000000250028002B002E00310000F8
:10013000000000240027002A002D003000000000ED
:10014000002300260029002C002F000404040404CE
:10015000030405020202020403020202020606066A
:100160000606060404020202040404080201104008
:100170008040102040804080080204018040201010
:100180000201108010204040200000000200090FF2
:100190000000030401000C0000000000000000004B
:1001A0000000000000000000FA0911241FBECFEF7C
:1001B000DAE0DEBFCDBF11E0A0E0B1E0EEE5F0E2B5
:1001C00002C005900D92A038B107D9F722E0A0E84F
:1001D000B1E001C01D92A039B207E1F710E0C5ED12
:1001E000D0E004C02197FE010E94E50EC43DD10776
:1001F000C9F70E94790B0C942D100C940000CF923B
:10020000DF92EF92FF920F931F93CF93DF93D90169
:10021000E8016A01F9014217530714F06901FA0174
:10022000882309F440C0CB016C157D050CF4C60190
:100230009F018E179F070CF49C01A417B50734F497
:10024000CF01821B930B9C012C0D3D1D0D2C000C2E
:10025000EE08FF08032E000C440B550B2C193D092A
:100260004E095F09AEEFBFEF0E94950E9F01FF0F91
:10027000440B550B2C193D094E095F090E94760E5F
:10028000DA01C9018F5F9F47A109B109888399836A
:1002900082E090E0DF91CF911F910F91FF90EF905E
:1002A000DF90CF90089590E080E0F4CFFC01809142
:1002B000EB01882311F13FB7F89482E08093E900C5
:1002C0002091F200822F90E01816190614F481E0B4
:1002D00090E0882339F0289844E64093EA01409161
:1002E000F1004083222339F02091F200211103C054
:1002F0002BE62093E8003FBF08958FEF9FEF08950E
:10030000CF93DF931F92CDB7DEB76983DC01ED9108
:10031000FC910280F381E02D41E050E0BE016F5F6F
:100320007F4F09950F90DF91CF91089583E08093DF
:10033000E9008091F200882319F08AE38093E800B5
:100340000895CF93DF931F92CDB7DEB7FC0184856C
:10035000958597FD08C02FEF3FEF358724870F90D5
:10036000DF91CF910895CE0101960E945601019729
:1003700019F4898190E0F3CF8FEF9FEFF0CF0F93C7
:100380001F93CF93DF931F92CDB7DEB78C01FC0193
:100390008485958597FF0BC0CE0101960E9456017A
:1003A000019771F4898190E0F80195878487F801BD
:1003B000848595850F90DF91CF911F910F910895BE
:1003C0008FEF9FEFF1CFFC018485958597FD0BC0E2
:1003D0009FB7F89482E08093E9008091F2009FBF7C
:1003E00090E0019608959FB7F89482E08093E90029
:1003F0008091F2009FBF90E008954091B00150912C
:10040000B1012091AE013091AF0142175307B4F40E
:100410009091E8009570E1F39091E80092FD19C089
:100420008093F1008091B0019091B10101968F739A
:100430009927892B19F48EEF8093E8008091B00101
:100440009091B10101969093B1018093B00181E048
:10045000089580E00895EF92FF920F931F93CF933A
:10046000DF93F82E192FE62E042F81E0860F880FD8
:100470000E94FD0183E00E94FD01CF2DD12FEC0EE3
:10048000FD2EF11CCE15DF05B9F007FF13C0FE01EC
:1004900084910E94FD01182F80E00E94FD018123BC
:1004A00021968111EFCFDF91CF911F910F91FF9096
:1004B000EF9008958881EDCF81E0F5CFDF92EF9244
:1004C000FF920F931F93CF93DF93D82E8A01EB01F6
:1004D0007B01E40EF51ECE15DF0559F0D7FE12C0E4
:1004E000FE0184910E94FD0121968111F4CF0FEF4E
:1004F0001FEFC801DF91CF911F910F91FF90EF90F7
:10050000DF9008958881EECF2FB7F894877080939D
:10051000E9009091E800892F807295FF04C09091C6
:10052000F20080E4891B2FBF089583E00E948402BB
:1005300090E00895615030F02091F100FC0120839B
:100540000196F8CF289884E68093EA010895809177
:10055000A60181110DC082E08093A20184E0809306
:10056000A3011092A5011092A40181E08093A6013D
:1005700082EA91E008950F931F93CF93DF931F9228
:10058000CDB7DEB782E0898342E450E06CEA70E0E8
:1005900080E80E945E020E94A702DC0112960D9183
:1005A0001C910115110589F0D801ED91FC91028093
:1005B000F381E02DBE016F5F7F4FC801099597FD64
:1005C00004C0F80100851185ECCF89810F90DF917F
:1005D000CF911F910F9108953FB7F89480919E019C
:1005E00090919F01A091A001B091A10126B5A89B77
:1005F00005C02F3F19F00196A11DB11D3FBFBA2FB5
:10060000A92F982F8827BC01CD01620F711D811D74
:10061000911D42E0660F771F881F991F4A95D1F7F9
:1006200008958F929F92AF92BF92CF92DF92EF92F6
:10063000FF924B015C010E94EC026B017C010E9465
:10064000EC026C197D098E099F09683E7340810593
:100650009105A8F321E0821A9108A108B10888EE5B
:10066000C80E83E0D81EE11CF11C81149104A10482
:10067000B10429F7FF90EF90DF90CF90BF90AF903B
:100680009F908F9008957F928F929F92AF92BF928A
:10069000CF92DF92EF92FF920F931F93CF93DF934E
:1006A000C82E8B017A018091EB01811110C08FEF70
:1006B0009FEFDF91CF911F910F91FF90EF90DF900F
:1006C000CF90BF90AF909F908F907F900895809132
:1006D000B40180FF05C08091E00082608093E0005B
:1006E000CE2DDF2DD12C8AEFB82E8C2D8770982E31
:1006F0008C2D8072882E8C2D8074782E9AE3A92EF2
:10070000209719F4DD2009F452C08C2D0E94840238
:1007100081110AC0BA94BB2051F261E070E080E020
:1007200090E00E941103ECCF8C171D0611F00CF025
:100730008C2F9FB7F8949092E9002091E80025FD56
:1007400002C09FBFDDCF282F30E0C21BD30B882013
:1007500029F08150A0F01092F100FBCFF801C7FC06
:100760000AC0815050F041914093F100FACF44917A
:100770004093F10031968150D0F7020F131FDD2016
:1007800021F0A092E800D12CDCCF8091E80085FD1B
:1007900007C0A092E800DD24D394209791F2F3CF14
:1007A000209779F6772069F2A092E800CACF5D9889
:1007B00084E68093B301C7017CCFCF93DF93EC0134
:1007C00080911201882331F083E00E9443031816C0
:1007D000190634F081E090E09B838A8380E090E00A
:1007E000DF91CF910895DC01FB0112962C911297B5
:1007F000848195812817190641F491818081813A7D
:1008000031F49D7F81E0913009F080E008958132DC
:10081000E1F79B3029F482811F968C9381E0089543
:100820009A3099F7828150968C93F8CFDC01FB01C6
:1008300088E4808389E4818384E482831D969C918B
:100840001D979F709F5B93831D968D919C9124E0D3
:10085000969587952A95E1F78F708F5B848385E065
:100860000895EF92FF920F931F93CF93DF93FB01B5
:100870002081213889F52381223271F5DC0112961D
:100880004C91248135814217130631F58C01FC010E
:10089000C385D485F12CE12C209791F04C815D81AA
:1008A0006A817B818E81811180E80E945E028F3F88
:1008B000980759F0E80EF91E0990D881C02DECCFA9
:1008C00081E0D8011F968C93C701DF91CF911F91D2
:1008D0000F91FF90EF90089590E080E0F6CFCF93D6
:1008E000DF93CDB7DEB769970FB6F894DEBF0FBEC2
:1008F000CDBFFC01DB018C918F5F8C939E012D5F3E
:100900003F4F8DE0D9011D928A95E9F729E02983AF
:1009100084E08A8391E09D8383E08E832A8721E2AD
:100920002B879C879D879F8722E2288B27E02B8B34
:1009300025E02C8B8E8B20E430E0388F2F8B998F25
:1009400082818B8395858685998B8A8B838180684C
:100950008D8B49E150E0BE016F5F7F4F80E00E94C8
:100960005E0269960FB6F894DEBF0FBECDBFDF9171
:10097000CF910895CF93DF9380919101811167C04A
:1009800081E080938401809385012AE831E03093EF
:1009900087012093860110928901109288012DE130
:1009A00031E0309381012093800110928C011092EC
:1009B0008B0110928E0110928D0180938F01809394
:1009C000900181EC80938A010E94A702FC01818141
:1009D00090918401482F490F5527551F48305105E4
:1009E0009CF5A281B381109709F520E831E03383AB
:1009F000228320812093820180938301809185014D
:100A0000820F808320918601A22FB09187018A2FC7
:100A1000821B8917C8F481813D91C82FD0E0C05056
:100A2000DF4F38838F5F8183F2CFD90118962D91E4
:100A30003C91199721153105C1F720E831E019964D
:100A40003C932E931897D5CF81E08093910180E855
:100A500091E0DF91CF9108958F929F92AF92BF92D4
:100A6000CF92DF92EF92FF920F931F93CF93DF937A
:100A7000CDB7DEB7ADB6BEB680918B022DB73EB70F
:100A8000281B31090FB6F8943EBF0FBE2DBF8DB79E
:100A90009EB701966C01E0905A02F12C80915602AB
:100AA00090915702D601FC019F01281B390B2E158E
:100AB0003F051CF421912D93F7CF80915B02882391
:100AC00059F1809152029091530228E097FD09C09C
:100AD00068E671E00E94D10E6DE270E00E94D10ED6
:100AE000262F809154029091550268E097FD08C02E
:100AF00068E671E00E94D10E6DE270E00E94D10EB6
:100B0000F601EE0DFF1D90E1699FB0011124262B27
:100B10002083F70131967F0186010E0D1F1D209164
:100B200060023091610240915E0250915F026091DB
:100B30003C0270913D0280915C0281700E94FF0036
:100B4000E80EF91E86010E0D1F1D209164023091E2
:100B50006502409162025091630260913E02709181
:100B60003F0280915C02869581700E94FF00E80E32
:100B7000F91E86010E0D1F1D209168023091690239
:100B8000409166025091670260914002709141026B
:100B900080915C0282FB882780F90E94FF00E80EAA
:100BA000F91E86010E0D1F1D20916C0230916D0201
:100BB00040916A0250916B0260914202709143022F
:100BC00080915C0283FB882780F90E94FF00E80E79
:100BD000F91E86010E0D1F1D2091700230917102C9
:100BE00040916E0250916F026091440270914502F3
:100BF00080915C02829581700E94FF00E80EF91ED0
:100C000086010E0D1F1D20917402309175024091D6
:100C10007202509173026091460270914702809176
:100C20005C0285FB882780F90E94FF00E80EF91E10
:100C300086010E0D1F1D209178023091790240919E
:100C400076025091770260914A0270914B02809136
:100C50005D0281700E94FF00E80EF91E86010E0DF4
:100C60001F1D20917C0230917D0240917A025091AB
:100C70007B02609148027091490280915D028695E5
:100C800081700E94FF00E80EF91E86010E0D1F1DE7
:100C9000209180023091810240917E0250917F022A
:100CA00060914C0270914D0280915D0282FB882719
:100CB00080F90E94FF00E80EF91E86010E0D1F1D2F
:100CC00020918402309185024091820250918302EA
:100CD00060914E0270914F0280915D0283FB8827E4
:100CE00080F90E94FF008E0D9F1D8601080F191FBD
:100CF00020918802309189024091860250918702AA
:100D0000609150027091510280915D0282958170D4
:100D10000E94FF000E94BA044C0140918B02809116
:100D20008A0250E07A01FFEFEF1AFF0A2DB73EB7B3
:100D30002E193F090FB6F8943EBF0FBE2DBF0DB759
:100D40001EB70F5F1F4FEDB7FEB78183B601C80115
:100D500001960E942410F4018381A701B8018064E8
:100D60000E9443030FB6F894BEBE0FBEADBEDF9126
:100D7000CF911F910F91FF90EF90DF90CF90BF9098
:100D8000AF909F908F90089590915902891708F520
:100D9000E82FE695E695E6952091560230915702A8
:100DA000E20FF32FF11D282F277081E090E0A0E0E3
:100DB000B0E004C0880F991FAA1FBB1F2A95D2F765
:100DC00080959081892380838091580281110C94B1
:100DD0002C05089590915902891700F5E82FE695A2
:100DE000E695E6952091560230915702E20FF32FD7
:100DF000F11D282F277081E090E0A0E0B0E004C052
:100E0000880F991FAA1FBB1F2A95D2F72081822B1A
:100E100080838091580281110C942C0508951F92B3
:100E20000F920FB60F9211248F939F938091E10040
:100E30009091E100937F9093E10083FF0FC01092A7
:100E4000E90091E09093EB001092EC0092E3909314
:100E5000ED001092EB0198E09093F00082FF22C029
:100E600093E09093E9009091F200992319F09AE3AE
:100E70009093E8009091B301992341F09091B301D0
:100E800091509093B301911101C05D9A9091EA0144
:100E9000992341F09091EA0191509093EA019111C8
:100EA00001C0289A84FF18C08091E2008E7E816084
:100EB0008093E2008091E1008F7E8093E100809139
:100EC000B4018E7E80618093B4019F918F910F90C9
:100ED0000FBE0F901F90189580FFF7CF8091E20012
:100EE0008E7E80618093E2008091E1008E7E80930F
:100EF000E1008091B4018E7E8160E5CF1F920F9258
:100F00000FB60F921124CF92DF92EF92FF920F93C0
:100F10001F932F933F934F935F936F937F938F9381
:100F20009F93AF93BF93EF93FF93CF93DF93CDB78F
:100F3000DEB76C97DEBFCDBF1092E9008091E8006C
:100F400083FF25C068E0CE0145960E949A0282EF99
:100F50008093E8008D8987FF39C09091E80090FF69
:100F6000FCCF982F907609F034C19E894F89588D17
:100F70002F89F88C911131C0803861F58091B501CD
:100F80008093F1001092F1008EEF8093E8006C9650
:100F90000FB6F894DEBF0FBECDBFDF91CF91FF91AA
:100FA000EF91BF91AF919F918F917F916F915F91E1
:100FB0004F913F912F911F910F91FF90EF90DF90F4
:100FC000CF900F900FBE0F901F9018959EEF9093AB
:100FD000E800C7CF1092F100D5CF913059F48111BC
:100FE000D3CF4130510581F68091B5018D7F80933B
:100FF000B501CACF933049F48111C6CF41305105B4
:1010000019F68091B5018260F2CF953041F480915C
:10101000E80080FFFCCF20682093E300B5CF963036
:1010200009F0A9C00B8D1C8D22E01092E9001092EE
:10103000B1011092B001F2122EC01092AF011092C5
:10104000AE010E94BB021F8299E09983FA8291E06F
:101050009E8390EA98879AEF99872091B00130910A
:10106000B101275F3F4F3C832B838D831092E900B2
:101070001092B1011092B0011093AF010093AE0134
:1010800049E050E0BE016F5F7F4F80E00E945E024A
:101090000E94BB0279CF1093AF010093AE010E9472
:1010A000A702DC0112960D911C910115110509F49E
:1010B00051C1D801ED91FC910480F581E02DBE0174
:1010C0006B5E7F4FC8010995009709F03EC1F8019A
:1010D00000851185EACFF3E0FF120EC08F898823C7
:1010E00009F440C0823061F440E864E18CE091E0B2
:1010F0000E942B02811148CF81E28093EB0047CF01
:10110000813029F440E867E084E091E0F1CF83305A
:1011100099F70E94A702DC011296ED90FC908E01D7
:101120000F5F1F4F6801E114F10479F0D701ED91D1
:10113000FC910680F781E02DB801C7010995080FE1
:10114000111DF701E084F184EECFD8011C92F60165
:1011500001900020E9F73197BF016C197D0940E04B
:10116000C601C6CF6EEE70E0FB01449150E080E80E
:101170000E945E0209CF973009F4BECF983021F467
:1011800081E08093F10000CF993009F0FDCE8370AB
:1011900009F0B2CFE1E0F1E081E031E096E32191A6
:1011A000222371F08093E9003093EB00DF01119767
:1011B0002C912093EC009093ED008F5F873079F7AE
:1011C0008EE78093EA001092EA008F898093EB010A
:1011D000DBCE8B8D9C8D1092E9001092B1011092A4
:1011E000B0019093AF018093AE01898D811192C0BF
:1011F0008E899D89913A49F4813209F07DCF47E08B
:1012000050E06BE071E080E0B3CF913209F074CF31
:10121000833269F48F89988DB0E0A0E08093070154
:1012200090930801A0930901B0930A01ADCE8032DA
:1012300069F48091E80082FFFCCF67E08BE091E0E9
:101240000E949A028BEF8093E8009ECE823209F0D2
:101250009BCE8F8980931201EEEFFFE785919491E9
:101260008B3F9C4D51F1E0E0F8E080910B019091B3
:101270000C01A0910D01B0910E01803B9440A1059D
:10128000B105F1F48091120180FD1AC0EE3F8AE0B1
:10129000F80789F587E797E791838083809160005D
:1012A0008093B20188E19BE00FB6F894A8958093F3
:1012B00060000FBE9093600067CEEEEFFAE0D5CFEE
:1012C000808191818737974709F05ECEA8958091FC
:1012D00060008861809360008091B201809360001B
:1012E000EE3F2AE0F20789F08091FE0A9091FF0A12
:1012F0009183808349CE808191818737980751F20D
:101300009093FF0A8093FE0AC5CF1092FF0A1092B5
:10131000FE0A3ACE0E94A702DC0112960D911C91A2
:101320000115110509F4E8CED801ED91FC91019069
:10133000F081E02DBE016B5E7F4FC80109958111E0
:1013400023CEF80100851185EBCF181619060CF491
:101350001BCED2CEF1E0FF12BECE62EF70E004CF22
:101360001F920F920FB60F9211242F933F938F93DA
:101370009F93AF93BF9380919A0190919B01A0910D
:101380009C01B0919D013091990123E0230F2D37ED
:1013900058F50196A11DB11D2093990180939A01E2
:1013A00090939B01A0939C01B0939D0180919E011D
:1013B00090919F01A091A001B091A1010196A11D62
:1013C000B11D80939E0190939F01A093A001B093C3
:1013D000A101BF91AF919F918F913F912F910F905C
:1013E0000FBE0F901F90189526E8230F0296A11D9F
:1013F000B11DD2CFEF92FF920F931F93CF93DF9344
:10140000CDB7DEB7C659D1090FB6F894DEBF0FBE0F
:10141000CDBF1092EF011092EE0188EE93E0A0E0B4
:10142000B0E08093F0019093F101A093F201B093AA
:10143000F30181E791E09093ED018093EC018FEF50
:101440009FEF9093F9018093F80110925702109248
:10145000560210925A0210925F0210925E028FEFB3
:1014600093E0909361028093600210926302109265
:101470006202909365028093640210926702109258
:101480006602909369028093680210926B02109238
:101490006A0290936D0280936C0210926F02109218
:1014A0006E029093710280937002109273021092F8
:1014B00072029093750280937402109277021092D8
:1014C0007602909379028093780210927B021092B8
:1014D0007A0290937D0280937C0210927F02109298
:1014E0007E02909381028093800210928302109278
:1014F0008202909385028093840210928702109258
:101500008602909389028093880293E090938A02E6
:101510002AE02093590210925B0210925C02109212
:101520005D0235E0398381E08A8349E04B833C8367
:1015300051EA5D838E8355E85F83988739874A87B0
:1015400039E13B878C8739E23D872E8735E13F873C
:10155000188A35E2398B8A8B45E74B8B8C8B35E9C2
:101560003D8B2E8B25E52F8B188E25E6298F1A8E25
:1015700021E82B8F52E05C8F4D8F8E8F3F8F86E05E
:1015800088A329A39AA380EC8BA383E290E00E9416
:10159000FF0E7C0183E2FE013196D70101900D928E
:1015A0008A95E1F787E090E00E94FF0E8C01DC0154
:1015B00011961C921E921396FC92EE92129783E261
:1015C00090E015969C938E93149716961C920E9409
:1015D000BA04FC01A385B485109709F072C0148782
:1015E000038785859685D80114962D913C91820FAD
:1015F000931F9687858790915902892F86958695A6
:101600008695977009F065C080935A0210915A022E
:10161000812F90E00E94FF0E909357028093560214
:1016200081E090915B02911101C080E0810F809375
:101630008B0210923D0210923C0210923F021092D7
:101640003E02109241021092400210924302109208
:1016500042021092450210924402109247021092E8
:101660004602109249021092480210924B021092C8
:101670004A0210924D0210924C0210924F021092A8
:101680004E0210925102109250028FEF9FEF9093F2
:10169000530280935202909355028093540290E03B
:1016A00080E020915A0228171906A9F0A4F0E091D1
:1016B0005602F0915702E80FF91F10820196F1CF00
:1016C000DC018D919C9111970097D1F70D931C939C
:1016D00088CF8F5F99CFCA56DF4F0FB6F894DEBF21
:1016E0000FBECDBFDF91CF911F910F91FF90EF9073
:1016F0000895789484B5826084BD84B5816084BD8A
:1017000085B5826085BD85B5816085BD80916E009F
:10171000816080936E0010928100809181008260D0
:10172000809381008091810081608093810080910D
:10173000800081608093800080919100826080931E
:101740009100809191008160809391008091900040
:101750008160809390008091C10084608093C1007B
:101760008091C10082608093C1008091C10081603E
:101770008093C1008091C30081608093C3008091F9
:10178000C00082608093C0008091C200816080931D
:10179000C20080917A00846080937A0080917A0000
:1017A000826080937A0080917A00816080937A00D1
:1017B00080917A00806880937A001092EB011092F9
:1017C000B5011092B4018091D70081608093D70059
:1017D00080EA8093D80089B5806189BD89B582602F
:1017E00089BD09B400FEFDCF61E070E080E090E0CB
:1017F0000E9411038091D8008F7C80618093D80073
:101800008091E000807F8093E0008091E1008E7EF7
:101810008093E1008DE08093E200559A209AA1E444
:10182000B1E047E551E02CEB31E0C2EDD1E067E5F6
:1018300071E0FC901296FA0181919191AF01992784
:10184000FC01E659FE4FE490855B9E4FFC018491BC
:101850008823D9F090E0880F991FFC01E15DFE4FCD
:1018600005911491FC01EF5DFE4F85919491F1106B
:1018700066C0FFB6F894F801D080E094DE20D082F4
:10188000FC011081E122E082FFBEF9011192119268
:101890009F01199219926A177B0709F0CACF81E05C
:1018A000809358020E942C05C0E0D0E01092E9011C
:1018B0001092E8018091E8019091E9018B30910547
:1018C0000CF0B6C0880F991FFC01E454FE4FDC01F8
:1018D000AE52BE4F2D913C9131832083895A9E4F49
:1018E000DC012D913C913327F901E757FE4F84919C
:1018F000F901E659FE4F9491255B3E4FF901249181
:10190000222309F447C0882309F438C081508F305E
:1019100008F034C0E82FF0E0E057F34F0C94E50EE8
:10192000F30CF70CB90CEB0CEF0CBE0CBE0CBE0CA0
:10193000FA0C000D040D080D0E0DBE0C120DF2E098
:10194000FF120FC0DFB6F894F801F080EE2DE0959D
:10195000FE22F801F082FC011081E12AE082DFBE64
:1019600094CF8FB7F894F8019081E92AE0828FBF75
:101970008CCF809180008F7780938000E22FF0E001
:10198000EE0FFF1FE35CFE4FA591B491EC919E23F7
:1019900081E009F480E02091E8013091E901A9019A
:1019A000440F551FFA01EE52FE4F4F5B5E4F91E020
:1019B000DA014D915C914230510509F090E081705F
:1019C000892790E0918380832F5F3F4F3093E90117
:1019D0002093E8016FCF809180008F7DCDCF8091E3
:1019E0008000877FC9CF84B58F7784BDC7CF84B58A
:1019F0008F7DFBCF809190008F7780939000BECF3A
:101A0000809190008F7DF9CF80919000877FF5CFF6
:101A10008091C0008F778093C000B0CF8091C000CC
:101A20008F7DF9CF8091C200877F8093C200A6CFBF
:101A30002091DA013091DB018091C4019091C501C0
:101A40002817390719F083E00E94EA062091DC018B
:101A50003091DD018091C6019091C70128173907A7
:101A600019F084E00E94EA068091E2019091E3017E
:101A70002091CC013091CD018217930729F081117B
:101A8000E9C087E00E94C4062091E4013091E5019D
:101A90008091CE019091CF012817390719F088E085
:101AA0000E94EA068091E6019091E7012091D00121
:101AB0003091D1018217930729F08111CFC089E0BD
:101AC0000E94C406E091D201F091D3018091BC0143
:101AD0009091BD01E81BF90BCF0101969093E901AC
:101AE0008093E8012091D4013091D5014091BE014D
:101AF0005091BF01241B350BFC01EE0FFF1FE80FB7
:101B0000F91F2F5F3F4FE20FF31FEE0FFF1FE15D45
:101B1000FE4F808191818F3F980709F4A3C0019700
:101B200009F4A4C0E091D601F091D7018091D801C9
:101B30009091D901E80FF91F8091C0019091C101E6
:101B40002091C2013091C301820F931FE81BF90B52
:101B5000EE0FFF1FE75DFE4F808191819093BB01E7
:101B60008093BA018091DE019091DF01880F991F67
:101B70004091E0015091E1019A01220F331F240F9F
:101B8000351F820F931F9093E9018093E801209104
:101B9000C8013091C901220F331F6091CA017091B1
:101BA000CB01AB01440F551F460F571F240F351FA4
:101BB000821B930B9093B9018093B8019093B70166
:101BC0008093B6011816190624F41092B9011092E8
:101BD000B8018091B8019091B90197FF04C01092AB
:101BE000B7011092B601C090BA01D090BB01E0904D
:101BF000B601F090B7010091B8011091B9011C1421
:101C00001D04B4F11E141F040CF43FC017FD49C09D
:101C10006AE070E080E090E00E9411031092E90118
:101C20001092E8010091E8011091E9010A301105D4
:101C30000CF056C00730110531F00930110519F0CC
:101C4000802F0E94C4060F5F1F4F1093E90100937D
:101C5000E801E8CF87E00E94EA0616CF89E00E94FB
:101C6000EA0630CF80E00E94EA065CCF81E0FBCF3D
:101C700082E00E94EA06E1E0CE1AD108D092BB01D0
:101C8000C092BA011E141F0454F485E00E94EA06B3
:101C9000F1E0EF1AF108F092B701E092B60117FFF8
:101CA00009C086E00E94EA060F5F1F4F1093B9013A
:101CB0000093B8016AE070E080E090E00E941103B8
:101CC00082E00E94C40685E00E94C40686E00E946D
:101CD000C4066AE070E080E090E00E94110383CFC8
:101CE000209709F4E3CD0E940000E0CD052E97FB7C
:101CF0001EF400940E948D0E57FD07D00E94A00E86
:101D000007FC03D04EF40C948D0E50954095309501
:101D100021953F4F4F4F5F4F089590958095709557
:101D200061957F4F8F4F9F4F08950E94C20EA59FD0
:101D3000900DB49F900DA49F800D911D11240895C6
:101D4000A1E21A2EAA1BBB1BFD010DC0AA1FBB1FBF
:101D5000EE1FFF1FA217B307E407F50720F0A21B31
:101D6000B30BE40BF50B661F771F881F991F1A949E
:101D700069F760957095809590959B01AC01BD01C8
:101D8000CF010895A29FB001B39FC001A39F700D22
:101D9000811D1124911DB29F700D811D1124911D73
:101DA000089597FB072E16F4009407D077FD09D00D
:101DB0000E94EB0E07FC05D03EF4909581959F4F55
:101DC0000895709561957F4F0895EE0FFF1F059060
:101DD000F491E02D0994AA1BBB1B51E107C0AA1F77
:101DE000BB1FA617B70710F0A61BB70B881F991FBC
:101DF0005A95A9F780959095BC01CD0108950F9350
:101E00001F93CF93DF938230910510F482E090E02E
:101E1000E0918E02F0918F0230E020E0B0E0A0E08F
:101E2000309799F42115310509F44AC0281B390B64
:101E300024303105D8F58A819B816115710589F1BE
:101E4000FB0193838283FE0111C040815181028195
:101E5000138148175907E0F04817590799F410976C
:101E600061F012960C93129713961C933296CF0141
:101E7000DF91CF911F910F91089500938E021093DF
:101E80008F02F4CF2115310551F04217530738F076
:101E9000A901DB019A01BD01DF01F801C1CFEF010A
:101EA000F9CF90938F0280938E02CDCFFE01E20F87
:101EB000F31F819391932250310939832883D7CF1F
:101EC00020918C0230918D02232B41F42091150139
:101ED0003091160130938D0220938C0220911301D2
:101EE000309114012115310541F42DB73EB74091D1
:101EF000170150911801241B350BE0918C02F091D1
:101F00008D02E217F307A0F42E1B3F0B28173907A9
:101F100078F0AC014E5F5F4F2417350748F04E0F45
:101F20005F1F50938D0240938C02819391939FCFBA
:101F3000F0E0E0E09CCFCF93DF930097E9F0FC0165
:101F4000329713821282A0918E02B0918F02ED011E
:101F500030E020E01097A1F420813181820F931F9F
:101F600020918C0230918D022817390709F061C049
:101F7000F0938D02E0938C02DF91CF910895EA01F6
:101F8000CE17DF07E8F54A815B819E0141155105B7
:101F9000B1F7E901FB83EA8349915991C40FD51F39
:101FA000EC17FD0761F4808191810296840F951FE3
:101FB000E90199838883828193819B838A83F0E0FE
:101FC000E0E012968D919C9113970097B9F52D91B1
:101FD0003C911197CD010296820F931F20918C02A4
:101FE00030918D022817390739F6309751F5109244
:101FF0008F0210928E02B0938D02A0938C02BCCF00
:10200000D383C28340815181840F951FC817D9079C
:1020100061F44E5F5F4F88819981480F591F51834A
:1020200040838A819B81938382832115310509F046
:10203000B0CFF0938F02E0938E029ECFFD01DC01C2
:10204000C0CF13821282D7CFFB01DC0102C0019006
:0E2050000D9241505040D8F70895F894FFCFFC
:10205E0000C18081000000FFFFFFFF00E1000000D3
:10206E0000000000009002800000000000F3036FEB
:10207E0004310416040100020000000100020000F9
:10208E0000FFFF0100010000000100FFFFFFFF0045
:10209E000002000200020002000200020000000026
:1020AE00000000020002000200030004000500060A
:1020BE00000700080009000A000B000C00000000D9
:1020CE00008001DD0395029601E301A101BF01002D
:00000001FF
